


ARM Macro Assembler    Page 1 


    1 00000000         ;=======================================================
                       =====================
    2 00000000         ;===  Copyright (c) 2008 Qualcomm Technologies Incorpora
                       ted. All Rights Reserved.
    3 00000000         ;=======================================================
                       =====================
    4 00000000                 AREA             DAL_ASM, CODE, READONLY
    5 00000000         ;  CODE32  Same code compiles for nor flash tool image w
                       hich run on cortex-M3.
    6 00000000         ;          (RPM). Cortex-M3 is Thumb2 based instruction 
                       set. Setting it 
    7 00000000         ;          explicitly to ARM(CODE32) leads to compilatio
                       n when build for nor 
    8 00000000         ;          flash image. Let build enviorment choose the 
                       right cpu when compiling
    9 00000000         ;          the code(Cortex-M3 or Sparrorw A5)
   10 00000000         ;=======================================================
                       =====================
   11 00000000                 EXPORT           DALFW_LockedGetW
   12 00000000         ;==  pTarget= r0
   13 00000000         DALFW_LockedGetW
   14 00000000 E1901F9F        ldrex            r1,[r0]     ;tag and fetch valu
                                                            e
   15 00000004 E1A00001        mov              r0,r1
   16 00000008 E12FFF1E        bx               r14
   17 0000000C                 EXPORT           DALFW_LockedConditionalSetW
   18 0000000C         ;== pTarget=r0, value = r1
   19 0000000C         DALFW_LockedConditionalSetW
   20 0000000C E1802F91        strex            r2, r1, [r0]
   21 00000010 E1A00002        mov              r0, r2      ; return outcome 0 
                                                            = success
   22 00000014 E12FFF1E        bx               r14
   23 00000018                 END
Command Line: --cpu=7-A.security --apcs=/noswst/interwork --no_unaligned_access
 -o/local/mnt/workspace/CRMBuilds/BOOT.BF.3.0.c8-00023-M8936AAAAANAZB-1_2017072
8_035427/b/boot_images/core/dal/src/build/sbl1/a53/SAAAANAZ/dal_asm_rvct.o -I/l
ocal/mnt/workspace/CRMBuilds/BOOT.BF.3.0.c8-00023-M8936AAAAANAZB-1_20170728_035
427/b/boot_images/core/dal/src/build -I/local/mnt/workspace/CRMBuilds/BOOT.BF.3
.0.c8-00023-M8936AAAAANAZB-1_20170728_035427/b/boot_images/build/cust -I. -I/lo
cal/mnt/workspace/CRMBuilds/BOOT.BF.3.0.c8-00023-M8936AAAAANAZB-1_20170728_0354
27/b/boot_images/core/api/boot -I/local/mnt/workspace/CRMBuilds/BOOT.BF.3.0.c8-
00023-M8936AAAAANAZB-1_20170728_035427/b/boot_images/core/api/boot/qfprom -I/lo
cal/mnt/workspace/CRMBuilds/BOOT.BF.3.0.c8-00023-M8936AAAAANAZB-1_20170728_0354
27/b/boot_images/core/boot/secboot3/src -I/local/mnt/workspace/CRMBuilds/BOOT.B
F.3.0.c8-00023-M8936AAAAANAZB-1_20170728_035427/b/boot_images/core/boot/ddr/com
mon -I/local/mnt/workspace/CRMBuilds/BOOT.BF.3.0.c8-00023-M8936AAAAANAZB-1_2017
0728_035427/b/boot_images/core/boot/ddr/hw/msm8936 -I/local/mnt/workspace/CRMBu
ilds/BOOT.BF.3.0.c8-00023-M8936AAAAANAZB-1_20170728_035427/b/boot_images/core/b
oot/ddr/hw/phy -I/local/mnt/workspace/CRMBuilds/BOOT.BF.3.0.c8-00023-M8936AAAAA
NAZB-1_20170728_035427/b/boot_images/core/boot/ddr/hw/controller -I/local/mnt/w
orkspace/CRMBuilds/BOOT.BF.3.0.c8-00023-M8936AAAAANAZB-1_20170728_035427/b/boot
_images/core/boot/secboot3/hw/msm8936 -I/local/mnt/workspace/CRMBuilds/BOOT.BF.
3.0.c8-00023-M8936AAAAANAZB-1_20170728_035427/b/boot_images/core/api/debugtools
 -I/local/mnt/workspace/CRMBuilds/BOOT.BF.3.0.c8-00023-M8936AAAAANAZB-1_2017072
8_035427/b/boot_images/core/api/dal -I/local/mnt/workspace/CRMBuilds/BOOT.BF.3.
0.c8-00023-M8936AAAAANAZB-1_20170728_035427/b/boot_images/core/api/mproc -I/loc
al/mnt/workspace/CRMBuilds/BOOT.BF.3.0.c8-00023-M8936AAAAANAZB-1_20170728_03542
7/b/boot_images/core/api/services -I/local/mnt/workspace/CRMBuilds/BOOT.BF.3.0.
c8-00023-M8936AAAAANAZB-1_20170728_035427/b/boot_images/core/api/systemdrivers 



ARM Macro Assembler    Page 2 


-I/local/mnt/workspace/CRMBuilds/BOOT.BF.3.0.c8-00023-M8936AAAAANAZB-1_20170728
_035427/b/boot_images/core/api/systemdrivers/pmic -I/local/mnt/workspace/CRMBui
lds/BOOT.BF.3.0.c8-00023-M8936AAAAANAZB-1_20170728_035427/b/boot_images/core/ap
i/systemdrivers/hwio/msm8936 -I/local/mnt/workspace/CRMBuilds/BOOT.BF.3.0.c8-00
023-M8936AAAAANAZB-1_20170728_035427/b/boot_images/core/api/kernel/libstd -I/lo
cal/mnt/workspace/CRMBuilds/BOOT.BF.3.0.c8-00023-M8936AAAAANAZB-1_20170728_0354
27/b/boot_images/core/debugtools/version/src -I/local/mnt/workspace/CRMBuilds/B
OOT.BF.3.0.c8-00023-M8936AAAAANAZB-1_20170728_035427/b/boot_images/core/dal/src
 -I/local/mnt/workspace/CRMBuilds/BOOT.BF.3.0.c8-00023-M8936AAAAANAZB-1_2017072
8_035427/b/boot_images/core/dal/config -I/local/mnt/workspace/CRMBuilds/BOOT.BF
.3.0.c8-00023-M8936AAAAANAZB-1_20170728_035427/b/boot_images/core/mproc/smem/in
c -I/local/mnt/workspace/CRMBuilds/BOOT.BF.3.0.c8-00023-M8936AAAAANAZB-1_201707
28_035427/b/boot_images/core/services/utils/src -I/local/mnt/workspace/CRMBuild
s/BOOT.BF.3.0.c8-00023-M8936AAAAANAZB-1_20170728_035427/b/boot_images/core/syst
emdrivers/tlmm/inc -I/local/mnt/workspace/CRMBuilds/BOOT.BF.3.0.c8-00023-M8936A
AAAANAZB-1_20170728_035427/b/boot_images/core/systemdrivers/tlmm/src --list=/lo
cal/mnt/workspace/CRMBuilds/BOOT.BF.3.0.c8-00023-M8936AAAAANAZB-1_20170728_0354
27/b/boot_images/core/dal/src/build/sbl1/a53/SAAAANAZ/dal_asm_rvct.o.lst --site
license /local/mnt/workspace/CRMBuilds/BOOT.BF.3.0.c8-00023-M8936AAAAANAZB-1_20
170728_035427/b/boot_images/core/dal/src/build/sbl1/a53/SAAAANAZ/dal_asm_rvct.o
.i
