


ARM Macro Assembler    Page 1 


    1 00000000         ;*******************************************************
                       **********************
    2 00000000         ; * @file:    startup.s
    3 00000000         ; * @purpose: Startup File for Bear RPM
    4 00000000         ;
    5 00000000         ;            Copyright (c) 2014 Qualcomm Technologies In
                       corporated.
    6 00000000         ;                   All Rights Reserved.
    7 00000000         ;             QUALCOMM Proprietary and Confidential
    8 00000000         ; ******************************************************
                       ***********************
    9 00000000 0009F000 
                       RPM_STACK_START
                               EQU              0x9F000
   10 00000000         ; Vector Table Mapped to Address 0 at Reset
   11 00000000         ;                AREA    RESET, DATA, READONLY
   12 00000000                 AREA             RPM_ENTRY, DATA, READONLY
   13 00000000 0009F000 
                       __Vectors
                               DCD              RPM_STACK_START ; Top of Stack
   14 00000004 00000000        DCD              Reset_Handler ; Reset Handler
   15 00000008                 AREA             |.text|, CODE, READONLY
   16 00000000         ; Reset Handler
   17 00000000         Reset_Handler
   18 00000000                 EXPORT           Reset_Handler
   19 00000000                 IMPORT           __main
   20 00000000 4800            LDR              R0, =__main
   21 00000002 4700            BX               R0
   22 00000004                 END
              00000000 
Command Line: --debug --dwarf2 --cpu=Cortex-M3 --apcs=/noswst/interwork -oZ:\b\
rpm_proc\core\bsp\rpm\build\startup.o -IZ:\b\rpm_proc\core\bsp\rpm\build -IZ:\b
\rpm_proc\core\bsp\rpm\src -Icust -Ims -IZ:\b\rpm_proc\core\bsp\rpm\inc -IZ:\b\
rpm_proc\core\api\boot -IZ:\b\rpm_proc\core\buses\api\spmi -IZ:\b\rpm_proc\core
\buses\api\icb -IZ:\b\rpm_proc\core\api\dal -IZ:\b\rpm_proc\core\api\debugtools
 -IZ:\b\rpm_proc\core\api\mproc -IZ:\b\rpm_proc\core\api\power -IZ:\b\rpm_proc\
core\api\systemdrivers -IZ:\b\rpm_proc\core\api\systemdrivers\pmic -IZ:\b\rpm_p
roc\core\api\systemdrivers\hwio\msm8929 -IZ:\b\rpm_proc\core\api\debugtrace -IZ
:\b\rpm_proc\core\api\services -IZ:\b\rpm_proc\core\boot\ddr\common -IZ:\b\rpm_
proc\core\dal\framework\sys\inc -IZ:\b\rpm_proc\core\dal\config\8929 -IZ:\b\rpm
_proc\core\debugtools\version\src -IZ:\b\rpm_proc\core\mproc\smem\inc -IZ:\b\rp
m_proc\core\power\mpm\inc -IZ:\b\rpm_proc\core\power\mpm\hal\include -IZ:\b\rpm
_proc\core\power\mpm\hal\bsp\include -IZ:\b\rpm_proc\core\power\sleep\inc -IZ:\
b\rpm_proc\core\power\utils\inc -IZ:\b\rpm_proc\core\power\rpm\server -IZ:\b\rp
m_proc\core\power\rpm\inc -IZ:\b\rpm_proc\core\power\system_db\inc -IZ:\b\rpm_p
roc\core\systemdrivers\busywait\inc -IZ:\b\rpm_proc\core\systemdrivers\timetick
\inc --list=Z:\b\rpm_proc\core\bsp\rpm\build\startup.o.lst --sitelicense Z:\b\r
pm_proc\core\bsp\rpm\build\startup.o.i
